S00F00004C6162314544322E737265631A
S11300000C9434000C9451000C9451000C949C01F9
S11300100C943F010C9451000C9451000C94510029
S11300200C9451000C9451000C9451000C94510008
S11300300C9451000C9451000C9451000C945100F8
S11300400C949C000C9451000C9451000C9451009D
S11300500C9451000C9451000C9451000C945100D8
S11300600C9451000C94510011241FBECFEFD8E022
S1130070DEBFCDBF11E0A0E0B1E0ECEDF3E002C0E3
S113008005900D92A431B107D9F721E0A4E1B1E0C4
S113009001C01D92AD31B207E1F70E9499000C94A2
S11300A0EC010C9400008F70E82FF0E0ED5FFE4F40
S11300B08081089514BC85E085BD82EB86BD81E016
S11300C080936E000895E8E6F0E080818360808389
S11300D0ECE6F0E0808183608083EBE6F0E08081F1
S11300E0886080838BB383608BBB0895F8948AB156
S11300F08F678AB984B1876084B985B1887F85B9EF
S11301001BB884B1877F84B985B1886085B987B10C
S1130110887F87B988B1876088B986B180930101E7
S113012083B1809300010E945A000E946300789476
S113013008950E947600FFCF1F920F920FB60F9280
S113014011242F933F934F935F936F937F938F93D8
S11301509F93AF93BF93EF93FF9382EB86BD809100
S11301601501882329F08091150181508093150190
S113017080911401882329F0809114018150809387
S1130180140180911901882349F180911A019091F9
S11301901B01019690931B0180931A0180911A010F
S11301A090911B01883C9105C8F010921B0110929C
S11301B01A0180910201882331F08091020181505B
S11301C0809302010BC080910201811107C081E07C
S11301D080931801109219011092020180911C0160
S11301E08F5F80931C0180911C01833010F010926A
S11301F01C0185B1887F85B980911C01811111C0D2
S113020080911901882311F01BB828C0809119012D
S1130210811124C0809117018BB985B1816085B9A2
S11302201DC080911C01813089F4809119018823BB
S113023011F01BB813C08091190181110FC0809176
S113024016018BB985B1826085B908C0809102011D
S11302500E9453008BB985B1846085B9FF91EF91F9
S1130260BF91AF919F918F917F916F915F914F91CA
S11302703F912F910F900FBE0F901F9018951F92D2
S11302800F920FB60F9211248F939F9386B13099DA
S11302900BC091E09093190195E0909302011092A4
S11302A01701109216013FC081FD3DC090910101DC
S11302B091FF39C090911501911135C094E090934C
S11302C0150190911901911129C090911801992358
S11302D051F1909117019F3030F5909116019F30A4
S11302E010F590911701911106C0909117019F5F2D
S11302F09093170118C090911701943049F49FE02E
S11303009093170191E090930201109216010BC093
S113031090911701990F9093170105C090911901BD
S1130320911110921701809301019F918F910F9069
S11303300FBE0F901F9018951F920F920FB60F9239
S113034011248F939F9383B183FD3DC0909100014D
S113035093FF39C090911401911135C094E09093AA
S1130360140190911901911129C0909118019923B8
S113037051F1909117019F3030F5909116019F3003
S113038010F590911601911106C0909116019F5F8E
S11303909093160118C090911601943049F49FE08F
S11303A09093160192E090930201109217010BC0F2
S11303B090911601990F9093160105C0909119011F
S11303C0911110921601809300019F918F910F90CB
S10F03D00FBE0F901F901895F894FFCFFB
S11303DCFFFF05C0F9A4B0999282F880908883C677
S10703ECA1868E0054
S9030119E2
