S00F00004C6162324544322E7372656319
S11300000C9434000C9449000C9449000C9449005D
S11300100C9449000C9449000C9449000C94490038
S11300200C9449000C9449000C9449000C94490028
S11300300C9449000C9449000C9449000C94490018
S11300400C9449000C9449000C9449000C94490008
S11300500C9449000C9449000C9449000C944900F8
S11300600C9449000C94490011241FBECFEFD8E032
S1130070DEBFCDBF11E0A0E0B1E0E4E2F7E002C0F2
S113008005900D92AA32B107D9F70E94A1020C94EF
S113009090030C94000080E480937C0087E88093B4
S11300A07A0008958770ECE7F0E09081987F892BBF
S11300B08083EAE7F0E080818064808380917A0025
S11300C086FDFCCF8091780090917900089595B1D8
S11300D09C7F282F2370922B95B99BB193708C7FB2
S11300E0892B8BB9089588B1886088B985E08A9591
S11300F0F1F7000088B1877F88B98FE891E0019714
S1130100F1F700C000000895CF93C82F88B18D7F08
S113011088B988B18B7F88B98C2F0E9467000E94B0
S11301207300C150C23030F48FE39FE10197F1F7BF
S113013000C00000CF91089598B1926098B998B129
S11301409B7F98B90E9467000E947300089584B150
S1130150836084B98AB18C6F8AB985B18C7F85B983
S11301608BB183708BB987B18E6087B988B1817F79
S113017088B92FEF89EF90E0215080409040E1F75B
S113018000C0000080E30E9467000E9473008FE1BA
S11301909EE40197F1F700C0000080E30E9467002D
S11301A00E94730087E592E00197F1F700C0000018
S11301B080E30E9467000E94730087E592E0019744
S11301C0F1F700C0000088E30E9484008CE00E94E4
S11301D0840086E00E94840081E00E9484008FE312
S11301E09FE10197F1F700C000000895611102C07A
S11301F090E001C090E4890F80680E948400089513
S11302000E949C000895CF93DF93EC0103C02196D4
S11302100E94000188818111FACFDF91CF91089566
S11302208F929F92AF92BF92CF92DF92EF92FF9202
S11302301F93CF93DF9300D000D000D0CDB7DEB7AB
S11302409C01A8E8B3E10E9481036B017C012FEFBC
S113025033E040E050E00E945F0349015A01C701C6
S1130260B60128E13CE94FE050E00E945F03122F01
S1130270C501B40128EE33E040E050E00E945F0382
S11302802AE030E040E050E00E945F0369017A0117
S1130290105D19838EE28A83ADECBCEC0E9481036D
S11302A0AC0156954795569547955695479580E3E5
S11302B0840F8B83CA01880F991F440F551F440F65
S11302C0551F440F551F480F591FC601841B950B1A
S11302D0805D8C8386E58D831E82CE0101960E940B
S11302E0030126960FB6F894DEBF0FBECDBFDF9193
S11302F0CF911F91FF90EF90DF90CF90BF90AF9080
S11303009F908F9008950F931F93CF93DF9300D006
S113031000D01F92CDB7DEB7FC011D829C01ADEC6D
S1130320BCEC0E9481039695879596958795969542
S113033087959C01220F331F880F991F880F991FDF
S1130340880F991F820F931F9F01281B390BC90126
S1130350805D8C839F010E948103AC015695479573
S113036056954795569547959A010E94810396950F
S1130370879596958795969587959C01220F331FAF
S1130380880F991F880F991F880F991F820F931F39
S11303909A01281B390B50E3520F5B839F0136955A
S11303A0279536952795ABE7B4E10E9481038C012C
S11303B0169507959801ADECBCEC0E9481039695C7
S11303C0879596958795969587959C01220F331F5F
S11303D0880F991F880F991F880F991F820F931FE9
S11303E09801281B390B40E3420F4A839F0136953D
S11303F027953695279536952795A5ECB0E20E946A
S11304008103FC01F295E295EF70EF27FF70EF276F
S11304109F01ADECBCEC0E9481039695879596955F
S11304208795969587959C01220F331F880F991FF6
S1130430880F991F880F991F820F931F9F01281BF4
S1130440390BC901805D8983803329F0CE0101967F
S11304500E94030112C0403329F0CE0102960E948B
S113046003010BC0503329F0CE0103960E9403010F
S113047004C0CE0104960E9403010F900F900F90C8
S11304800F900F90DF91CF911F910F9108951F93BB
S1130490CF93DF9300D000D000D0CDB7DEB7AC014E
S11304A0892B91F580E30E94370341C09A01ADEC9A
S11304B0BCEC0E94810396958795969587959695B1
S11304C087959C01220F331F880F991F880F991F4E
S11304D0880F991F820F931F9A01281B390BC9019A
S11304E0E1E0F0E0EC0FFD1FE10FF11D805D808382
S11304F09A010E948103AC015695479556954795FC
S1130500569547951F5F01C010E04115510569F0EC
S1130510153060F20AC01150E1E0F0E0EC0FFD1F6D
S1130520E10FF11D80810E9437031111F4CF26964B
S11305300FB6F894DEBF0FBECDBFDF91CF911F91F0
S11305400895CF93DF931F92CDB7DEB70E944B007F
S11305500E94A70087E690E00E942C0300E010E0D0
S113056084E00E9452006C0185E00E9452007C01EC
S1130570CE0101960E945103882351F089818B3268
S113058019F40F5F1F4F04C08D3211F4015011098B
S113059060E080E00E94F60080E091E00E940301A8
S11305A0C6010E94100184E091E00E94030161E011
S11305B080E00E94F60088E091E00E940301C701F8
S11305C00E94830186E091E00E9403018CE091E0A7
S11305D00E940301112354F48DE20E940001882734
S11305E09927801B910B0E94830103C0C8010E94BC
S11305F0830184E091E00E94030180E191E00E9484
S11306003E03C6010E94470288E191E00E943E0336
S1130610C7010E94470281E291E00E943E03112338
S113062054F48DE20E94370388279927801B910B8D
S11306300E94470203C0C8010E94470286E291E07B
S11306400E943E032FEF83EC99E0215080409040BC
S1130650E1F700C0000084CF9093C5008093C400EC
S113066086E08093C20088E18093C1000895909150
S1130670C00095FFFCCF8093C6000895CF93DF930D
S1130680EC0103C021960E94370388818111FACFBF
S1130690DF91CF9108958091C000881F8827881F1B
S11306A00895CF93DF93EC010E944B03882321F03C
S11306B08091C600888381E0DF91CF910895A1E203
S11306C01A2EAA1BBB1BFD010DC0AA1FBB1FEE1FC8
S11306D0FF1FA217B307E407F50720F0A21BB30B13
S11306E0E40BF50B661F771F881F991F1A9469F78F
S11306F060957095809590959B01AC01BD01CF01EB
S11307000895A29FB001B39FC001A39F700D811DE6
S11307101124911DB29F700D811D1124911D089506
S1070720F894FFCF77
S113072453313A002020200053323A0053333A0024
S113073453315F4144433D002053325F4144433DC0
S10D0744002053333D000D0A0000AD
S9030000FC
